:03000000020100FA
:03000300020100F7
:03000B00020100EF
:03001300020100E7
:03001B00020100DF
:03002300020100D7
:03002B00020100CF
:10010000C2AF12013F1202A20A0D57656C636F6DF8
:100110006520746F20362E313135210A0D4D494E40
:100120004D4F4E3E200075812FC2AFC2001202A279
:100130000D0A2A00C298120265FA02028180E77550
:100140008920758841758DFD7598502202250225FC
:100150000225022501D30225022501BD0225022523
:100160000225022502250225022502250225022557
:1001700001820225022502250225019C0225022575
:100180000225120253F5831202C1120253F58212A4
:1001900002C11202B6E01202C102013D120253F581
:1001A000831202C1120253F5821202C1743D12027F
:1001B00090120253FF1202C1EFF002013D120253EE
:1001C000FF1202C1120253C0E01202C11202B6EFC6
:1001D000C0E0221202B6743E120290120298B43AA3
:1001E000FA12021B6021F812021BD2E7F5831202F9
:1001F0001BF58212021B12021BF0A3D8F912021B7C
:10020000742E12029080D412021B12021B12021BC7
:1002100012021B742E12029002013D1202532000A2
:10022000012202023B1202A20D0A206261642063D5
:100230006F6D6D616E64200002013D1202A20D0A15
:100240002062616420706172616D65746572200066
:1002500002013D1202981202E8C4F5F0120298124F
:1002600002E845F022120298C2E5120290C39440BF
:10027000500312023BC0E0941B400312023BD0E04B
:100280002290014CEA230493C0E0EA2393C0E022C9
:10029000C299F5993099FD223098FDE599547FC2B5
:1002A0009822D083D082E493B40002800612029098
:1002B000A380F3740173740A120290740D120290F9
:1002C00022C0E01202D0120290EA120290D0E02284
:1002D000FA540F24F650022407243ACAC4540F24B7
:1002E000F650022407243A22C20024D05017C32417
:1002F000F64003240A22C2E5C324F95008C324FAB5
:0D0300004003540F22D20002013D02000014
:00000001FF
