:03000000020200F9
:03000300020200F6
:03000B00020200EE
:03001300020200E6
:03001B00020200DE
:03002300020200D6
:10002B000202000A0D57656C636F6D6520746F20BB
:10003B004C454D6F6E2056302E310A0D547970653C
:10004B00202768656C702720666F722061206C69B1
:10005B007374206F6620636F6D6D616E64732E0A0F
:10006B000D004C454D6F6E24002E2E2E2E2E2E2E57
:10007B002E2E2E2E2E2E2E2E2E7472616E736665E4
:10008B007200676F746F00726561640077726974D8
:10009B00650072756E0068656C70000A0D50414EFC
:1000AB0049433A20000A0D4552524F523A20000A5A
:1000BB000D5741524E494E473A20009000A612046C
:1000CB002012046C120433D0F0D0F012046C80FEBA
:10020000C2AF12023990002E1204201202131204FF
:100210003380FE74001204462275812FC2AFC200E3
:1002200090006DC082C08312046CD0F0D0F0C298F0
:100230001203C1FA0203DD80E075892075884175DB
:100240008DFD75985022034003400340034002EEA9
:100250000340034002D803400340034003400340EF
:10026000034003400340034003400298034003401F
:100270000340034002B2034003400340008402EE07
:10028000008D02D800920298009702B2009D0340B0
:1002900000A10340000000001203B612045D120426
:1002A000940D0A00E4931204B31204940D0A0002A0
:1002B00002371203B6C083C08212045D1204943D5B
:1002C000001203A4C0E01204B3D0E01204B3D08241
:1002D000D08312045D0202371203A4FF1204B3128A
:1002E00003A4C0E01204B31204A8EFC0E022120479
:1002F000A8743E12048212048AB43AFA12033660D9
:1003000021F8120336D2E7F583120336F582120381
:1003100036120336F0A3D8F9120336742E12048273
:1003200080D4120336120336120336120336742EAB
:100330001204820202371203A42000012202038C5D
:100340001204940D0A4552524F523A20556E6B6E6C
:100350006F776E20436F6D6D616E642E20547970DF
:1003600065202768656C702720666F722061206C9D
:10037000697374206F662076616C696420636F6DA9
:100380006D616E64732E0D0A000202371204940D23
:100390000A2062616420706172616D65746572200B
:1003A0000002023712048A1204DAC4F5F012048A39
:1003B0001204DA45F0221203A4F5831203A4F58295
:1003C0002212048AC2E5120482C39440500312032D
:1003D0008CC0E0941B400312038CD0E022900246B4
:1003E000EA230493C0E0EA2393C0E02290027C89D0
:1003F00000EA230493C0E0EA2393C0E02222F8E558
:1004000081940498F8E6222222E5001203FEC299A4
:10041000F59930997122309871E599547FC29822EC
:1004200012045D1204A8D0E0D0F0C082C083C0F0F6
:10043000C0E022D0E0D0F0D083D082C0F0C0E01283
:10044000045D1204A822F824041203FEF583E824B4
:10045000051203FEF58212045D1204A822C0E0E535
:10046000831204B3E5821204B3D0E02274001204B4
:100470004612045DE493B400028006120482A38055
:10048000F322C299F5993099FD223098FDE59954EF
:100490007FC29822D083D082E493B40002800612F7
:1004A0000482A380F3740173740A120482740D121F
:1004B000048222C0E01204C2120482EA120482D032
:1004C000E022FA540F24F650022407243ACAC454F6
:1004D0000F24F650022407243A22C20024D05017D9
:1004E000C324F64003240A22C2E5C324F95008C3FA
:0F04F00024FA4003540F22D20002023702000008
:00000001FF
