:03000000020200F9
:03000300020200F6
:03000B00020200EE
:03001300020200E6
:03001B00020200DE
:03002300020200D6
:10002B000202000A0D57656C636F6D6520746F20BB
:10003B004C454D6F6E2056302E310A0D547970653C
:10004B00202768656C702720666F722061206C69B1
:10005B007374206F6620636F6D6D616E64732E0A0F
:10006B000D004C454D6F6E24002E2E2E2E2E2E2E57
:10007B002E2E2E2E2E2E2E2E7472616E73666572A0
:10008B0000676F746F0072656164007772697465E5
:10009B000072756E0068656C70000A0D50414E4918
:1000AB00433A20000A0D4552524F523A20000A0D96
:1000BB005741524E494E473A20009000A5C082C08E
:1000CB00831203F2D0F0D0F0D0F0D0F01203F28014
:0100DB00FE26
:10020000C2AF12023390002EC082C0831203F2D01C
:10021000F0D0F075812FC2AFC20090006DC082C0D7
:10022000831203F2D0F0D0F0C2981203BBFA02039B
:10023000D780E0758920758841758DFD75985022AD
:10024000033A033A033A033A02E8033A033A02D282
:10025000033A033A033A033A033A033A033A033AB6
:10026000033A033A0292033A033A033A033A02ACDE
:10027000033A033A033A008302E8008C02D2009169
:10028000033A0096033A009C033A00A0033A0000A8
:1002900000001203B012044E1204200D0A00E49371
:1002A00012043F1204200D0A000202311203B0C0F2
:1002B00083C08212044E1204203D0012039EC0E04F
:1002C00012043FD0E012043FD082D08312044E02C9
:1002D000023112039EFF12043F12039EC0E012047B
:1002E0003F120434EFC0E022120434743E12040EB4
:1002F000120416B43AFA1203306021F8120330D215
:10030000E7F583120330F582120330120330F0A3B5
:10031000D8F9120330742E12040E80D41203301256
:100320000330120330120330742E12040E02023115
:1003300012039E200001220203861204200D0A45AA
:1003400052524F523A20556E6B6E6F776E20436F4C
:100350006D6D616E642E2054797065202768656C20
:10036000702720666F722061206C697374206F663D
:100370002076616C696420636F6D6D616E64732EAD
:100380000D0A000202311204200D0A20626164206D
:10039000706172616D657465722000020231120431
:1003A00016120475C4F5F012041612047545F022F5
:1003B00012039EF58312039EF58222120416C2E5F3
:1003C00012040EC394405003120386C0E0941B40F5
:1003D00003120386D0E022900240EA230493C0E097
:1003E000EA2393C0E02222F8E581940498F8E622FB
:1003F000222274001203E7F58374011203E7F582E9
:10040000E493B40002800612040EA380F322C29982
:10041000F5993099FD223098FDE599547FC29822D4
:10042000D083D082E493B40002800612040EA3802D
:10043000F3740173740A12040E740D12040E22C0B8
:10044000E012045D12040EEA12040ED0E022C0E0B5
:10045000E58312043FE58212043FD0E022FA540FF4
:1004600024F650022407243ACAC4540F24F650023A
:100470002407243A22C20024D05017C324F6400394
:10048000240A22C2E5C324F95008C324FA400354C5
:0A0490000F22D20002023102000028
:00000001FF
