:03000000020200F9
:03000300020200F6
:03000B00020200EE
:03001300020200E6
:03001B00020200DE
:03002300020200D6
:10002B000202000A0D57656C636F6D6520746F20BB
:10003B004C454D6F6E2056302E310A0D547970653C
:10004B00202768656C702720666F722061206C69B1
:10005B007374206F6620636F6D6D616E64732E0A0F
:10006B000D004C454D6F6E24002E2E2E2E2E2E2E57
:10007B002E2E2E2E2E2E2E2E2E7472616E736665E4
:10008B007200676F746F00726561640077726974D8
:10009B00650072756E0068656C70000A0D50414EFC
:1000AB0049433A20000A0D4552524F523A20000A5A
:1000BB000D5741524E494E473A20009000A612046C
:1000CB003A12048612044DD0F0D0F012048680FE52
:10020000C2AF1202531204AE50757368696E672E46
:100210002E2E0090002E12043A1204AE506F707011
:10022000696E672E2E2E0012044D12043A120486B7
:1002300012044D75812FC2AFC20090006DC082C004
:1002400083120486D0F0D0F0C2981203DBFA0203C6
:10025000F780E0758920758841758DFD759850226D
:10026000035A035A035A035A0308035A035A02F261
:10027000035A035A035A035A035A035A035A035A96
:10028000035A035A02B2035A035A035A035A02CCBE
:10029000035A035A035A00840308008D02F20092A5
:1002A00002B2009702CC009D035A00A1035A00003D
:1002B00000001203D01204771204AE0D0A00E4937A
:1002C0001204CD1204AE0D0A000202511203D0C076
:1002D00083C0821204771204AE3D001203BEC0E058
:1002E0001204CDD0E01204CDD082D0831204770264
:1002F00002511203BEFF1204CD1203BEC0E012046D
:10030000CD1204C2EFC0E0221204C2743E12049C5B
:100310001204A4B43AFA1203506021F8120350D226
:10032000E7F583120350F582120350120350F0A335
:10033000D8F9120350742E12049C80D41203501268
:100340000350120350120350742E12049C020251E7
:100350001203BE200001220203A61204AE0D0A45BC
:1003600052524F523A20556E6B6E6F776E20436F2C
:100370006D6D616E642E2054797065202768656C00
:10038000702720666F722061206C697374206F661D
:100390002076616C696420636F6D6D616E64732E8D
:1003A0000D0A000202511204AE0D0A20626164209F
:1003B000706172616D6574657220000202511204F1
:1003C000A41204F4C4F5F01204A41204F445F022BB
:1003D0001203BEF5831203BEF582221204A4C2E505
:1003E00012049CC3944050031203A6C0E0941B4027
:1003F000031203A6D0E022900260EA230493C0E037
:10040000EA2393C0E0229002968900EA230493C075
:10041000E0EA2393C0E02222F8E581940498F8E60C
:10042000222222E500120418C299F599309971220E
:10043000309871E599547FC298221204771204C251
:10044000D0E0D0F0C082C083C0F0C0E022D0E0D0C5
:10045000F0D083D082C0F0C0E01204771204C22230
:10046000F82402120418F583E82403120418F58214
:100470001204771204C222C0E0E5831204CDE582A3
:100480001204CDD0E0227400120460120477E493C9
:10049000B40002800612049CA380F322C299F5994D
:1004A0003099FD223098FDE599547FC29822D0837F
:1004B000D082E493B40002800612049CA380F374FB
:1004C0000173740A12049C740D12049C22C0E01281
:1004D00004DC12049CEA12049CD0E022FA540F249B
:1004E000F650022407243ACAC4540F24F6500224BA
:1004F00007243A22C20024D05017C324F640032414
:100500000A22C2E5C324F95008C324FA4003540F59
:0905100022D20002025102000097
:00000001FF
